{
  "contractName": "Notary",
  "abi": [
    {
      "inputs": [],
      "payable": false,
      "stateMutability": "nonpayable",
      "type": "constructor"
    },
    {
      "constant": true,
      "inputs": [],
      "name": "firmCounter",
      "outputs": [
        {
          "internalType": "uint256",
          "name": "",
          "type": "uint256"
        }
      ],
      "payable": false,
      "stateMutability": "view",
      "type": "function"
    },
    {
      "constant": false,
      "inputs": [
        {
          "internalType": "uint256",
          "name": "signature",
          "type": "uint256"
        }
      ],
      "name": "hashSignature",
      "outputs": [
        {
          "internalType": "bytes32",
          "name": "sigHash",
          "type": "bytes32"
        }
      ],
      "payable": false,
      "stateMutability": "nonpayable",
      "type": "function"
    },
    {
      "constant": false,
      "inputs": [
        {
          "internalType": "address",
          "name": "firmOwner",
          "type": "address"
        },
        {
          "internalType": "bytes32",
          "name": "signature",
          "type": "bytes32"
        }
      ],
      "name": "testSignature",
      "outputs": [
        {
          "internalType": "bool",
          "name": "",
          "type": "bool"
        }
      ],
      "payable": false,
      "stateMutability": "nonpayable",
      "type": "function"
    },
    {
      "constant": false,
      "inputs": [
        {
          "internalType": "address",
          "name": "firmOwner",
          "type": "address"
        },
        {
          "internalType": "string",
          "name": "CPF",
          "type": "string"
        },
        {
          "internalType": "uint256",
          "name": "signature",
          "type": "uint256"
        }
      ],
      "name": "openFirm",
      "outputs": [
        {
          "internalType": "bool",
          "name": "",
          "type": "bool"
        }
      ],
      "payable": false,
      "stateMutability": "nonpayable",
      "type": "function"
    },
    {
      "constant": false,
      "inputs": [
        {
          "internalType": "address",
          "name": "firmOwner",
          "type": "address"
        },
        {
          "internalType": "string",
          "name": "CPF",
          "type": "string"
        },
        {
          "internalType": "uint256",
          "name": "signature",
          "type": "uint256"
        }
      ],
      "name": "recognizeFirm",
      "outputs": [
        {
          "internalType": "bool",
          "name": "",
          "type": "bool"
        }
      ],
      "payable": true,
      "stateMutability": "payable",
      "type": "function"
    },
    {
      "constant": true,
      "inputs": [
        {
          "internalType": "address",
          "name": "firmOwner",
          "type": "address"
        }
      ],
      "name": "getFirms",
      "outputs": [
        {
          "internalType": "string",
          "name": "CPF",
          "type": "string"
        },
        {
          "internalType": "bytes32",
          "name": "Signature",
          "type": "bytes32"
        }
      ],
      "payable": false,
      "stateMutability": "view",
      "type": "function"
    },
    {
      "constant": true,
      "inputs": [
        {
          "internalType": "address",
          "name": "firmOwner",
          "type": "address"
        }
      ],
      "name": "getOperations",
      "outputs": [
        {
          "internalType": "string",
          "name": "CPF",
          "type": "string"
        },
        {
          "internalType": "bytes32",
          "name": "Signature",
          "type": "bytes32"
        },
        {
          "internalType": "bool",
          "name": "status",
          "type": "bool"
        }
      ],
      "payable": false,
      "stateMutability": "view",
      "type": "function"
    },
    {
      "constant": true,
      "inputs": [
        {
          "internalType": "address",
          "name": "firmOwner",
          "type": "address"
        }
      ],
      "name": "getLastTransactionStatus",
      "outputs": [
        {
          "internalType": "bool",
          "name": "status",
          "type": "bool"
        }
      ],
      "payable": false,
      "stateMutability": "view",
      "type": "function"
    }
  ],
  "bytecode": "0x608060405234801561001057600080fd5b5060008081905550610c3e806100276000396000f3fe60806040526004361061007b5760003560e01c80638d3112911161004e5780638d311291146103065780639476c78d14610410578063db76c37014610483578063fd41ac85146104ae5761007b565b806333c7659f14610080578063436052cf1461017d57806347e724c7146101e65780637900a78b14610235575b600080fd5b6101636004803603606081101561009657600080fd5b81019080803573ffffffffffffffffffffffffffffffffffffffff169060200190929190803590602001906401000000008111156100d357600080fd5b8201836020820111156100e557600080fd5b8035906020019184600183028401116401000000008311171561010757600080fd5b91908080601f016020809104026020016040519081016040528093929190818152602001838380828437600081840152601f19601f8201169050808301925050505050505091929192908035906020019092919050505061058a565b604051808215151515815260200191505060405180910390f35b34801561018957600080fd5b506101cc600480360360208110156101a057600080fd5b81019080803573ffffffffffffffffffffffffffffffffffffffff169060200190929190505050610711565b604051808215151515815260200191505060405180910390f35b3480156101f257600080fd5b5061021f6004803603602081101561020957600080fd5b810190808035906020019092919050505061076a565b6040518082815260200191505060405180910390f35b34801561024157600080fd5b506102846004803603602081101561025857600080fd5b81019080803573ffffffffffffffffffffffffffffffffffffffff16906020019092919050505061079a565b6040518080602001838152602001828103825284818151815260200191508051906020019080838360005b838110156102ca5780820151818401526020810190506102af565b50505050905090810190601f1680156102f75780820380516001836020036101000a031916815260200191505b50935050505060405180910390f35b34801561031257600080fd5b506103f66004803603606081101561032957600080fd5b81019080803573ffffffffffffffffffffffffffffffffffffffff1690602001909291908035906020019064010000000081111561036657600080fd5b82018360208201111561037857600080fd5b8035906020019184600183028401116401000000008311171561039a57600080fd5b91908080601f016020809104026020016040519081016040528093929190818152602001838380828437600081840152601f19601f820116905080830192505050505050509192919290803590602001909291905050506108c8565b604051808215151515815260200191505060405180910390f35b34801561041c57600080fd5b506104696004803603604081101561043357600080fd5b81019080803573ffffffffffffffffffffffffffffffffffffffff1690602001909291908035906020019092919050505061097b565b604051808215151515815260200191505060405180910390f35b34801561048f57600080fd5b506104986109db565b6040518082815260200191505060405180910390f35b3480156104ba57600080fd5b506104fd600480360360208110156104d157600080fd5b81019080803573ffffffffffffffffffffffffffffffffffffffff1690602001909291905050506109e1565b604051808060200184815260200183151515158152602001828103825285818151815260200191508051906020019080838360005b8381101561054d578082015181840152602081019050610532565b50505050905090810190601f16801561057a5780820380516001836020036101000a031916815260200191505b5094505050505060405180910390f35b6000806105968361076a565b90506105a2858261097b565b156106a95783600160008773ffffffffffffffffffffffffffffffffffffffff1673ffffffffffffffffffffffffffffffffffffffff16815260200190815260200160002060020190805190602001906105fd929190610b64565b5080600160008773ffffffffffffffffffffffffffffffffffffffff1673ffffffffffffffffffffffffffffffffffffffff1681526020019081526020016000206003018190555060018060008773ffffffffffffffffffffffffffffffffffffffff1673ffffffffffffffffffffffffffffffffffffffff16815260200190815260200160002060040160006101000a81548160ff021916908315150217905550600191505061070a565b6000600160008773ffffffffffffffffffffffffffffffffffffffff1673ffffffffffffffffffffffffffffffffffffffff16815260200190815260200160002060040160006101000a81548160ff02191690831515021790555060009150505b9392505050565b6000600160008373ffffffffffffffffffffffffffffffffffffffff1673ffffffffffffffffffffffffffffffffffffffff16815260200190815260200160002060040160009054906101000a900460ff169050919050565b60008160405160200180828152602001915050604051602081830303815290604052805190602001209050919050565b60606000600260008473ffffffffffffffffffffffffffffffffffffffff1673ffffffffffffffffffffffffffffffffffffffff168152602001908152602001600020600101600260008573ffffffffffffffffffffffffffffffffffffffff1673ffffffffffffffffffffffffffffffffffffffff16815260200190815260200160002060020154818054600181600116156101000203166002900480601f0160208091040260200160405190810160405280929190818152602001828054600181600116156101000203166002900480156108b85780601f1061088d576101008083540402835291602001916108b8565b820191906000526020600020905b81548152906001019060200180831161089b57829003601f168201915b5050505050915091509150915091565b60006108d38261076a565b600260008673ffffffffffffffffffffffffffffffffffffffff1673ffffffffffffffffffffffffffffffffffffffff1681526020019081526020016000206002018190555082600260008673ffffffffffffffffffffffffffffffffffffffff1673ffffffffffffffffffffffffffffffffffffffff168152602001908152602001600020600101908051906020019061096f929190610b64565b50600190509392505050565b6000600260008473ffffffffffffffffffffffffffffffffffffffff1673ffffffffffffffffffffffffffffffffffffffff168152602001908152602001600020600201548214156109d057600190506109d5565b600090505b92915050565b60005481565b6060600080600160008573ffffffffffffffffffffffffffffffffffffffff1673ffffffffffffffffffffffffffffffffffffffff168152602001908152602001600020600201600160008673ffffffffffffffffffffffffffffffffffffffff1673ffffffffffffffffffffffffffffffffffffffff16815260200190815260200160002060030154600160008773ffffffffffffffffffffffffffffffffffffffff1673ffffffffffffffffffffffffffffffffffffffff16815260200190815260200160002060040160009054906101000a900460ff16828054600181600116156101000203166002900480601f016020809104026020016040519081016040528092919081815260200182805460018160011615610100020316600290048015610b505780601f10610b2557610100808354040283529160200191610b50565b820191906000526020600020905b815481529060010190602001808311610b3357829003601f168201915b505050505092509250925092509193909250565b828054600181600116156101000203166002900490600052602060002090601f016020900481019282601f10610ba557805160ff1916838001178555610bd3565b82800160010185558215610bd3579182015b82811115610bd2578251825591602001919060010190610bb7565b5b509050610be09190610be4565b5090565b610c0691905b80821115610c02576000816000905550600101610bea565b5090565b9056fea265627a7a7231582043617d183fc022181fc951834db102e0be04105b49eb45c2cec1902941a401ba64736f6c63430005100032",
  "source": "pragma solidity >=0.4.22 <0.7.0;\n\n/**\n * @title Notary\n * @dev Notary system\n */\n\ncontract Notary {\n    uint256 public firmCounter;\n\n    constructor () public{\n        firmCounter = 0;\n    }\n\n    struct Firm {\n        address owner;\n        string CPF;\n        bytes32 Signature;\n    }\n\n    struct Operation {\n        address beneficiary;\n        string firmOwner;\n        string CPF;\n        bytes32 Signature;\n        bool status;\n    }\n\n    mapping (address => Operation) operations;\n    mapping (address => Firm) firms;\n\n\n    function hashSignature(uint256 signature) public returns (bytes32 sigHash){\n        return keccak256(abi.encodePacked(signature));\n    }\n\n    function testSignature(address firmOwner, bytes32 signature) public returns (bool){\n        if(signature == firms[firmOwner].Signature){\n            return true;\n        }\n        return false;\n    }\n\n    function openFirm(address firmOwner, string memory CPF, uint256 signature) public returns(bool){\n        firms[firmOwner].Signature = hashSignature(signature);\n        firms[firmOwner].CPF = CPF;\n        return true;\n    }\n\n    function recognizeFirm(address firmOwner, string memory CPF, uint256 signature) public payable returns(bool){\n        bytes32 signatureHashed = hashSignature(signature);\n        if(testSignature(firmOwner, signatureHashed)){\n            operations[firmOwner].CPF = CPF;\n            operations[firmOwner].Signature = signatureHashed;\n            operations[firmOwner].status = true;   \n            return true;\n        }\n        operations[firmOwner].status = false;\n        return false;\n    }\n\n    function getFirms(address firmOwner) public view returns(string memory CPF, bytes32 Signature){\n        return (firms[firmOwner].CPF, firms[firmOwner].Signature);\n    }\n\n    function getOperations(address firmOwner) public view returns(string memory CPF, bytes32 Signature, bool status){\n        return (operations[firmOwner].CPF, operations[firmOwner].Signature, operations[firmOwner].status);\n    }\n    \n    function getLastTransactionStatus(address firmOwner) public view returns(bool status){\n        return (operations[firmOwner].status);\n    }\n}",
  "sourcePath": "/home/caio/Documents/Insper/6Semestre/Ativos Digitais e Blockchain/NotaryBlockchain/contracts/Notary.sol",
  "compiler": {
    "name": "solc",
    "version": "0.5.16+commit.9c3226ce.Emscripten.clang"
  },
  "schemaVersion": "3.3.1",
  "updatedAt": "2020-11-25T22:47:43.200Z",
  "networkType": "ethereum",
  "devdoc": {
    "details": "Notary system",
    "methods": {},
    "title": "Notary"
  },
  "userdoc": {
    "methods": {}
  }
}